:020000020000FC
:2000000000404074084008140800683A0000000000000000000000000000000000000000DE
:2000080006C04074DEE8001406804074D6A65614008040741086B21400C0407418CAB814B2
:2000100010C00326100000151080010410FFFD361010E3C01010EC00003FFF060100407413
:20001800DEFFFE042105BE04DFC00115DC0000151010EEC0010040742105CC041010EEC014
:20002000040003F410101B8084109004D0E00003008040B410C41035D0A000038009883AE4
:200028000084303AD0A000051010DAC0003FF706DEFFFB04DCC0031504C04074DC800215E4
:20003000DC400115DC000015DFC004152025883A0021883A3163C83A9CC5DA048440071635
:20003800DFC00417DCC00317DC800217DC400117DC000017DEC00504F800283A9405883A40
:20004000114000039809883A8400004410103780808003CC103FF11E0100028410103C80BA
:20004800003FEE06200B883AD1200317DEFFFF04DFC00015101107001000012600800244B4
:20005000DFC00017DEC00104F800283ADEFFFC04DC800215DC400115DC000015DFC00315B3
:200058000021883A0480007404403C34D1200317800B883A1011070010803FCC10000B269D
:2000600001004074800B883A2105DC04101037800005883ADFC00317DC800217DC40011778
:20006800DC000017DEC00404F800283A84A1883A847FEE1E003FF606D1E00117D1605D17E6
:20007000D120031701804074DEFFFF043186B804DFC00015101137C010003E1E01004074F0
:200078002105E40410104600D1A00117D1605D17010040742106B80410100B000080002360
:2000800010803FCC108019181000391E0080006310803FCC108019581000351E008000A398
:2000880010803FCC10801B981000311E008000E310803FCC10801B9810002D1E00800123DB
:2000900010803FCC10801A581000291E0080016310803FCC10801CD81000251E0009883A3B
:200098001010124010803FCC10001E1E010040742105ED0410104600D1E00117D1605D174F
:2000A000D1200317018040743186B804101137C01000231E010040742105E40410104600FB
:2000A800D1A00117D1605D17010040742106B80410100B00101014C010803FCC10001C1E6E
:2000B000010040742105F604DFC00017DEC0010410104601010040742105E904101046006D
:2000B800003FC606010040742105F204003FE1060080190400800025008019440080006522
:2000C00000801B84008000A5008000E500801A440080012500801CC400800165003FD60692
:2000C800010040742105E90410104600003FE106010040742105FC04003FE306DEFFFD04E3
:2000D000DFC00015D9800115D9C002152180021700C0407418C28B0430C00115280D883AA9
:2000D80021400217D9C0010410104F80DFC00017DEC00304F800283ADEFFFC04DFC00015BB
:2000E000D9400115D9800215D9C003150080407410C658170080407410828B041940021770
:2000E800D980010428800115200B883A190002171010A140DFC00017DEC00404F800283A06
:2000F000218002171010B2810080407410865817200B883A118002171009883A1010B281E5
:2000F800DEFFFD04DC0000152021883A2809883ADFC00215DC4001152823883A10104700C7
:200100008140021700C0407418C28B0428C00115100F883A880D883A8009883A1010A2C025
:2001080010FFFFE01800091E814002170180407401C0004428800117318604048009883ACC
:20011000103EE83A10BFFFE00085C83ADFC00217DC400117DC000017DEC00304F800283A4C
:2001180000804074200B883A1106581710103E012005883A10C000071800021E1105C83AB3
:20012000F800283A10800044003FFA06DEFFFB04DC800315DC400215DC000115DFC0041525
:200128002025883A2823883AD98000053821883A040007160005883ADFC00417DC80031712
:20013000DC400217DC000117DEC00504F800283A8880011701C00044D80D883A880B883A64
:200138009009883A103EE83A843FFFC4103FF02600BFFFC4003FF006DEFFE604DDC01715AA
:20014000DD801615DD401515DD001415DCC01315DC801215DC401115DC001015DFC0191573
:20014800DF0018152025883A2823883AD9800515382F883A0021883AD8000215D80000151C
:200150000029883A002D883A0027883A002B883AD80001150005883A00000206114000E0F1
:2001580028004E1ED8C005171900000318C00044D8C0051520C03FCC18C0201C18FFE0045B
:2001600018001026114000A028001F1E114000C8283FF21E1000181E18C0096018010E1E7F
:2001680088800117D900080501C00044D9800804880B883A9009883A103EE83A10001E2693
:20017000043FFFC48005883ADFC01917DF001817DDC01717DD801617DD401517DD0014179F
:20017800DCC01317DC801217DC401117DC001017DEC01A04F800283A18800C201000FF1ECE
:2001800018800958103FE626213FF40421003FCC208002A810000C1E98BFFFE01000081E97
:20018800980490BA14C5883A1004907A20A7883A00800084003FCB0684000044003FC90645
:200190000005883A003FF90618800BA01000EF1E18801B201000EC1EB0BFFFE010001C1E65
:20019800D800011518801BE01000BA1E18801C081000581E188018E01000BD1E1880190868
:2001A0001000151E18C01620183FB226A800721E00800044D880021500007006213FF40486
:2001A80021003FCC214002A8283FE91EB0FFFFE01800051EB00690BA1D87883A1806907A3B
:2001B00020ED883A003FA7060007883A003FFC0605800044003FE306188019201000021E78
:2001B80018C01A60183F9B26B8800104D8800415D880001710009826BDC00017B8009A0EDE
:2001C00005EFC83A02400044DF000804E00D883AB800541EE185C83AD8800315B085C83AD0
:2001C80000800B0ED8C01004E0C0072EE085883A01000C04E7000044E13FFFC51700022677
:2001D000D8C01004E0FFFB36E185C83AD8800315D88003174891883AD88001179A2FC83A33
:2001D8001000592648000A2600800B44D88007C58880011701C00044D98007C4880B883A6F
:2001E0009009883A103EE83A103F8D1E8400004405C0070EB80F883A01800C04880B883A29
:2001E8009009883A101048C0103F851E85E1883AD8800317E011883A172FC83ABA05883A6C
:2001F000008057168707883ADDC004171A21C83A003F600618801D6010005F1E18801E20A0
:2001F80010001E1E18C01CE0183F5A26B8800104D8800315B88000171009883A1039883A0E
:2002000010104700988FC83A102F883A01C0080E01800804880B883A9009883AD9C0041587
:20020800101048C0103F661ED9C0041781E1883A88800117B80F883AE00D883A880B883A56
:200210009009883A103EE83A103F5D1E85E1883ADDC00317003F4306DD4002150500040491
:2002180000003D06B809883AA00B883ADA4006151010CC401009883AA00B883AD88003157A
:200220001010D840B8AFC83AB8800288D9000317DA400617D98008041000051EBDC00C040C
:20022800E7000044E5FFFFC5202F883A003F9806D880021710000226BDC00DC4003FF806C1
:20023000BDC015C4003FF60605C0090EB80F883A01800804880B883A9009883ADA40061546
:20023800101048C0103F361EDA40061785E1883A483FAF2600800B44D88007C5888001170D
:2002400001C00044D98007C4880B883A9009883A103EE83A103F2A1E84000044003FA4060D
:2002480040BFFFC301C00044423FFFC4D88007C588800117D98007C4880B883A9009883A74
:20025000DA000315103EE83ADA000317103F9B26003F1B0605000204B8800104D88004150F
:20025800BDC00017D80000150013883A003F6606988000901000091E99FFFFC401800804BE
:20026000880B883A9009883AD9C00315101048C0103F0B1ED9C0031781E1883AB880001757
:20026800B8C0010401C00044D880080588800117D9800804880B883A9009883AD8C00315AA
:20027000103EE83A103EFE1ED8C0031784000044182F883A003EE30600800044D800021537
:20027800002B883AD8000115D88000150500028405BFFFC404FFFFC4003EDA060080004464
:20028000D8800115003F0A0605400044008000C4003ED40600804074300F883A280D883A90
:20028800200B883A1106581710104F812880000B1080020C100025262880008FDEFFFB0434
:20029000DCC00315DC800215DC400115DC000015DFC004152027883A2821883A3025883A21
:200298003823883A1000100E8080000B108010148080000D00BFFFC400000D068881005041
:2002A000880F883A1000011E01C100048140008F900D883A9809883A1010B80000BFF20E47
:2002A80088A3C83A90A5883A047FF4160005883ADFC00417DCC00317DC800217DC400117A5
:2002B000DC000017DEC00504F800283A00BFFFC4F800283ADEFFFD0400804074DC0001155A
:2002B800DFC0021510828B042880011500804074D90000C52021883A1106581701C0004431
:2002C000D98000C41010A2C010BFFFD81000011E043FFFC48005883ADFC00217DC000117B1
:2002C800DEC00304F800283ADEFFFD0400804074DC000115DFC0021510828B043080011576
:2002D00000804074110658172821883A01C00044300B883AD98000C4DC0000C51010A2C007
:2002D80010BFFFD81000011E043FFFC48005883ADFC00217DC000117DEC00304F800283A39
:2002E000DEFFFE04DC000015008040742021883A2809883A300B883A380D883ADFC001154B
:2002E8001006B4151010F24010FFFFD81800041E00C0407418C6B4171800012680C00015F4
:2002F000DFC00117DC000017DEC00204F800283A20001A16000F883A2800020E014BC83A9F
:2002F80039C0005C200D883A00C000442900092E0080080400C0004400000106100012265F
:20030000294B883A10BFFFC418C7883A293FFB3618000D260005883A31400236314DC83AA0
:2003080010C4B03A1806D07A280AD07A183FFA1E380001260085C83AF800283A0109C83A78
:2003100001C00044003FE4060005883A003FF80620001716000F883A2005883A2800010E5F
:20031800014BC83A00C000442900092E0180080400C000440000010630001026294B883ADF
:2003200031BFFFC418C7883A293FFB3618000B261806D07A114001361145C83A280AD07AC3
:20032800183FFB1E380001260085C83AF800283A0109C83A01C00044003FE7062005883AE1
:20033000003FF806200D883A2900152E280014160080080400C000440000020610000E26E7
:2003380028000416294B883A10BFFFC418C7883A293FFA36180008260005883A31400236AC
:20034000314DC83A10C4B03A1806D07A280AD07A183FFA1EF800283A0005883AF800283A91
:2003480000C00044003FF4062005883A2900132E280012160180080400C00044000002061E
:2003500030000C2628000416294B883A31BFFFC418C7883A293FFA36180006261806D07A1B
:20035800114001361145C83A280AD07A183FFB1EF800283A2005883AF800283A00C000441A
:20036000003FF6060005883A2000072620C0004C2008D07A180001261145883A294B883A03
:20036800203FFA1EF800283AF800283ADEFFFE04008666B4DC000015DFC0011510A6660405
:200370002021883A1100182E014666B4296666441010CC4000E000341009883A18FFFFC484
:200378000005883A18FFFFC4183FFE1E10800044113FFC16017999B4295999C41010D8403D
:200380001405883A100690BA1885883A10BFFFC4103FFE1E0005883ADFC00117DC00001755
:20038800DEC00204F800283A200490BA1105883A10BFFFC400BFFE16003FF606DEFFFF0491
:200390000100407401404074DFC0001521060A0429465E04214004260180407431865E0410
:20039800310DC83A10116D000100407401404074210008042940080421400426018040746B
:2003A00031800804310DC83A10116D0001004074014040742105BE042945BE042140042665
:2003A8000180407431860A04310DC83A10116D0010115580DFC00017DEC00104101162415A
:2003B000DEFFFF040009883ADFC000151010F8001010FA00D1A05F17D1606017D1206117A4
:2003B800DFC00017DEC00104101005C1DEFFFE04DC000015DFC001152021883A10104700F7
:2003C00001004074000F883A100D883A800B883A21065A04DFC00117DC000017DEC0020498
:2003C8001010FAC1213FFFC4210000A82000041E01004074000F883A21065A041010FAC126
:2003D000D0A0051710000926DEFFFF04DFC00015103EE83A00C0144410C0001500BFFFC4BF
:2003D800DFC00017DEC00104F800283AD0A05E0400C0144410C0001500BFFFC4F800283AA7
:2003E000DEFFFF04DFC0001510116280008000441001703ADFC00017DEC00104F800283A34
:2003E8000100407421061F0410113CC120C000173005883A2989883A01BFFFD42900013683
:2003F000F800283A19C0013731FFFC2E29C000072940004419C00035003FF80620001426E6
:2003F800280A923A20803017DEFFFE04DC000015DFC001152021883A294000D411400335B2
:2004000080C03017188000371080004C1000051E18C00037DFC00117DC000017DEC002041A
:20040800F800283A010000441010DAC0003FF40600BFFA84F800283A200009262800082606
:200410003000072620800C17308000151000062621000D04290000150005883AF800283A1A
:2004180000BFFA84F800283A00BFFEC4F800283ADEFFFE04DC000015DFC001152021883ACA
:2004200020001E262809883A28001C168080311728801A2E8140341728BFFFC41104703A5E
:200428001000161E1010CC401004923A00C0403418FFC00410C4703A80C03017110001142A
:200430001900033580C03017108000941880033580C03017188004371080004C1000032671
:20043800008000441880043500BFFEC4DFC00117DC000017DEC00204F800283A00BFFA84A9
:20044000003FFA06DEFFF604DC400215DFC00915DDC00815DD800715DD400615DD00051534
:20044800DCC00415DC800315DC0001153144B03ADC400A17100044162027883A20004226E2
:20045000382B883A38004026208031173021883A30803D2E28803C2E248034173145C83A3A
:200458009085C83A144038368800371694BFFFC49164703A9000341E05BFFFC405C00104EE
:200460008800021E0005883A00001D06DD800015810000CC20002526B929C83A8D00012E20
:200468008829883A8121C83AAC8B883AA00D883AD909883A10116D0098802E17D8C00017B7
:200470009525883A8D23C83A8085883A10C0003598802E178085883A1100003719000126C6
:2004780010C0003598C03017188004371080008C10001326008000841880043500BFFEC432
:20048000DFC00917DDC00817DD800717DD400617DD000517DCC00417DC800317DC400217D1
:20048800DC000117DEC00A04F800283A888001708829883A103FDC1E05000104003FDA06FC
:2004900084000104003FCE0600BFFA84003FEC0620003B26DEFFF504DD000515DFC00A1536
:20049800DF000915DDC00815DD800715DD400615DCC00415DC800315DC400215DC0001158E
:2004A0003029883A3000302620802E172021883A80C02F172885883A2823883A3825883A92
:2004A8003889883A10C0282E19002736814034178809883A002F883A1010CC40102D883A9A
:2004B00080803317B08002360005883A00001F06903FFD2685403417056BC83AAC6A703A5A
:2004B8008D4015268D79C83AA80B883A8009883A101107001000151E84C034179F27C83A92
:2004C00094C0012E9027883ADCC00015A5CF883A880D883AA80B883A8009883A10111040B1
:2004C80010000A1E94E5C83ABCEF883A8CE3883AB5800044003FE2060039883A003FEA06F9
:2004D00000BFFA84F800283A00BFFA84DFC00A17DF000917DDC00817DD800717DD40061708
:2004D800DD000517DCC00417DC800317DC400217DC000117DEC00B04F800283A2005883AC7
:2004E000200010263009883A30000E2610C02E1710802F17380D883A28CB883A3947883A5E
:2004E8002880082E10C00736DEFFFF04DFC0001510116D000005883ADFC00017DEC00104C7
:2004F000F800283A00BFFA84F800283A2000602620803017DEFFFB04DC000015DFC00415E9
:2004F800DCC00315DC800215DC4001152021883A1000242620C032171800361E10800237D0
:2005000010803FCC10BFFAC410C0036818001D1E100490BA00C0407410C7883A18850917FD
:200508001000683A010114580101150C010114A401011500010114B00101148401011484C5
:2005100001011484010114840101148401011484010114BC010114C8044008040480054496
:2005180084C03417880B883A9809883A1010D84080C031171880021E808033171440282618
:2005200080000C1500BFFB44DFC00417DCC00317DC800217DC400117DC000017DEC0050469
:20052800F800283A04402004048005C4003FEC060440800404800644003FE9060441000466
:2005300004800804003FE6060442000404800844003FE3061080013710803FCC10C005A0D6
:2005380018000D1E10C006201800051E10800520103FE4260440080404800504003FD80627
:200540000440400404800604003FD5060440100404800584003FD20604402004003FFC0646
:20054800008000448480361580800C1580000D1580C00E1584400F1584C01015D1600604CE
:200550008009883A101155C00005883A003FCE0600BFFA84F800283AF800283A20000226F7
:200558002080021710000B1ED0A0051710001026DEFFFF04DFC00015103EE83A00C0058472
:2005600010C0001500BFFA84DFC00017DEC00104F800283A288000172140011520800015BB
:2005680011000115290000150005883AF800283AD0A05E0400C0058410C0001500BFFA84B0
:20057000F800283ADEFFFE04D1600604DC000015DFC001152021883A10116300100008268C
:2005780010C0031718000626800B883A1009883ADFC00117DC000017DEC002041800683A05
:20058000DFC00117DC000017DEC00204F800283A2000032620800417100001261000683AC6
:20058800F800283AF800283A000170FAF800283ADEFFFB04DCC00315DC800215DC400115A5
:20059000DC000015DFC004152C0000172027883A2823883A10104700148000448440091E1F
:200598000021883A8005883ADFC00417DCC00317DC800217DC400117DC000017DEC0050466
:2005A000F800283A81000217900D883A980B883A10116A00103FF32684000017003FEF06C1
:2005A8000007883A30C0021E0005883AF800283A20C5883A18C0004428CF883A108000032A
:2005B00039FFFFC311FFF72611C5C83AF800283A2005883A0007883A30C0011EF800283AB9
:2005B80028CF883A39C0000310C9883A18C0004421C00005003FF8062D2D2D2D202D2D2D39
:2005C000636C655720656D6F45206F7420514350646165527257202F20657469676F725055
:2005C8006D6D61722D2021652D2D2D2D000A2D2D61656C507220657372656665206F7420CA
:2005D000206568746F6D656D7220797265676E61726F6620756F79205045207244205143E1
:2005D8006369766500000A655832302500000020736172456166206564656C692074612064
:2005E000726464612073736530257830000A5836646165526375732073736563216C756663
:2005E8000000000064616552696166202164656C000000007361724575732065736563633B
:2005F0006C75667300000021736172456166206564656C69000000217361724561206465A5
:2005F80045206C6C20514350746365530073726F736172456C6120655045206C53205143BA
:200600006F74636546207372656C6961000000640000000A7665642F4350452F76615F51DF
:20060800656D5F6C0000006D000000000000000000000000000000000000000000000000C8
:200610000000000000000000000000000000000000000000000000000000000000000000CA
:200618000000000000000000000000000000000000000000000000000000000000000000C2
:200620000000000000000000000000000000000000000000000000000000000000000000BA
:200628000000000000000000000000000000000000000000000000000000000000000000B2
:200630000000000000000000000000000000000000000000000000000000000000000000AA
:200638000000000000000000000000000000000000000000000000000000000000000000A2
:2006400000000000000000000000000000000000000000000000000000000000000000009A
:20064800000000000000000000000000000000000000000000000000000000000000000092
:2006500000000000000000000000000000000000000000000000000000000000000000008A
:20065800000000000000000000000000000000000000000000000000000000000101185C0C
:20066000010118640101186C00000000000000000000000000000000000000000000000076
:2006680000000000000000000000000000000004000000000001000A000000000002000A57
:2006700000000000000000000000000000000000000000000101181400000000000000003C
:20067800010112500101137C01011038010110700101110400000000010000000000000089
:2006800000000000000000000000000000000000000000000000000000000000000000005A
:20068800000000000000000000000000000000000000000000000000000000000000000052
:2006900000000000000000000000000000000000000000000000000000000000000000004A
:20069800000000000000000000000000000000000000000000000000000000000000000042
:2006A00001010FDC0000000001000000010210000100000000000000000001000001000036
:2006A80000000100000000000000000100001000010118280101187C0102105000000000E5
:2006B000010119700101197000000000000000000000000000000000000000000000000014
:2006B800000000000000000000000000000000000000000000000000000000000000000022
:2006C00000000000000000000000000000000000000000000000000000000000000000001A
:2006C800000000000000000000000000000000000000000000000000000000000000000012
:2006D00000000000000000000000000000000000000000000000000000000000000000000A
:00000001FF
