:020000020000FC
:2000000000404074084008140800683A0000000000000000000000000000000000000000DE
:2000080006C04074DEE8001406804074D6A65F14008040741086BB1400C0407418CAC11497
:2000100010C00326100000151080010410FFFD361010E5801010EDC0003FFF060100407490
:20001800DEFFFB042105C504DFC00415DC0003151010F080010040742105D3041010F0807F
:20002000D1E00117D1605D17D1200317018040743186C104101139801000531E0100407486
:200028002105E104101047C0D1A00117D1605D17010040742106C1041010250000800023CF
:2000300010803FCC1080191810004E1E0080006310803FCC1080195810004A1E008000A3BE
:2000380010803FCC10801B981000461E008000E310803FCC10801B981000421E0080012301
:2000400010803FCC10801A5810003E1E0080016310803FCC10801CD810003A1E0009883A61
:2000480010102C4010803FCC1000331E010040742105EA04101047C0D1E00117D1605D17B2
:20005000D1200317018040743186C104101139801000381E010040742105E104101047C0AD
:20005800D1A00117D1605D17010040742106C1041010250000C01CC4008004B410C00025A7
:20006000D120031701C00284D9800084014004B410113980D9400083010040742105F30410
:200068001010394010102EC010803FCC1000251E010040742105F504040003F4101047C0ED
:2000700084109004D0E00003008040B410C41035D0A000038009883A0084303AD0A00005E7
:200078001010DC80003FF706010040742105E604101047C0003FB106010040742105EF0400
:20008000003FCC060080190400800025008019440080006500801B84008000A5008000E5A2
:2000880000801A440080012500801CC400800165003FC106010040742105E604101047C09C
:20009000003FCC06010040742105FB04003FDA06DEFFFB04DCC0031504C04074DC800215CB
:20009800DC400115DC000015DFC004152025883A0021883A3163C83A9CC6030484400716A3
:2000A000DFC00417DCC00317DC800217DC400117DC000017DEC00504F800283A9405883AD8
:2000A800114000039809883A8400004410103940808003CC103FF11E0100028410103E40CE
:2000B000003FEE06200B883AD1200317DEFFFF04DFC00015101108C010000126008002448B
:2000B800DFC00017DEC00104F800283ADEFFFC04DC800215DC400115DC000015DFC003154B
:2000C0000021883A0480007404403C34D1200317800B883A101108C010803FCC10000B2674
:2000C80001004074800B883A21060504101039400005883ADFC00317DC800217DC40011724
:2000D000DC000017DEC00404F800283A84A1883A847FEE1E003FF606DEFFFD04DFC000155A
:2000D800D9800115D9C002152180021700C0407418C2920430C00115280D883A21400217D4
:2000E000D9C0010410105140DFC00017DEC00304F800283ADEFFFC04DFC00015D94001153C
:2000E800D9800215D9C003150080407410C66117008040741082920419400217D980010429
:2000F00028800115200B883A190002171010A300DFC00017DEC00404F800283A21800217E0
:2000F8001010B4410080407410866117200B883A118002171009883A1010B441DEFFFD042C
:20010000DC0000152021883A2809883ADFC00215DC4001152823883A101048C08140021701
:2001080000C0407418C2920428C00115100F883A880D883A8009883A1010A48010FFFFE040
:200110001800091E814002170180407401C000442880011731860D048009883A103EE83A39
:2001180010BFFFE00085C83ADFC00217DC400117DC000017DEC00304F800283A0080407480
:20012000200B883A1106611710103FC12005883A10C000071800021E1105C83AF800283ABB
:2001280010800044003FFA06DEFFFB04DC800315DC400215DC000115DFC004152025883A70
:200130002823883AD98000053821883A040007160005883ADFC00417DC800317DC400217DC
:20013800DC000117DEC00504F800283A8880011701C00044D80D883A880B883A9009883A36
:20014000103EE83A843FFFC4103FF02600BFFFC4003FF006DEFFE604DDC01715DD80161575
:20014800DD401515DD001415DCC01315DC801215DC401115DC001015DFC01915DF001815E7
:200150002025883A2823883AD9800515382F883A0021883AD8000215D80000150029883A35
:20015800002D883A0027883A002B883AD80001150005883A00000206114000E028004E1E40
:20016000D8C005171900000318C00044D8C0051520C03FCC18C0201C18FFE0041800102699
:20016800114000A028001F1E114000C8283FF21E1000181E18C0096018010E1E88800117A5
:20017000D900080501C00044D9800804880B883A9009883A103EE83A10001E26043FFFC4A5
:200178008005883ADFC01917DF001817DDC01717DD801617DD401517DD001417DCC01317D7
:20018000DC801217DC401117DC001017DEC01A04F800283A18800C201000FF1E1880095893
:20018800103FE626213FF40421003FCC208002A810000C1E98BFFFE01000081E980490BAA2
:2001900014C5883A1004907A20A7883A00800084003FCB0684000044003FC9060005883A5C
:20019800003FF90618800BA01000EF1E18801B201000EC1EB0BFFFE010001C1ED800011536
:2001A00018801BE01000BA1E18801C081000581E188018E01000BD1E188019081000151E0B
:2001A80018C01620183FB226A800721E00800044D880021500007006213FF40421003FCC95
:2001B000214002A8283FE91EB0FFFFE01800051EB00690BA1D87883A1806907A20ED883A90
:2001B800003FA7060007883A003FFC0605800044003FE306188019201000021E18C01A60ED
:2001C000183F9B26B8800104D8800415D880001710009826BDC00017B8009A0E05EFC83A32
:2001C80002400044DF000804E00D883AB800541EE185C83AD8800315B085C83A00800B0E25
:2001D000D8C01004E0C0072EE085883A01000C04E7000044E13FFFC517000226D8C010045C
:2001D800E0FFFB36E185C83AD8800315D88003174891883AD88001179A2FC83A1000592648
:2001E00048000A2600800B44D88007C58880011701C00044D98007C4880B883A9009883A9B
:2001E800103EE83A103F8D1E8400004405C0070EB80F883A01800C04880B883A9009883A21
:2001F00010104A80103F851E85E1883AD8800317E011883A172FC83ABA05883A0080571610
:2001F8008707883ADDC004171A21C83A003F600618801D6010005F1E18801E2010001E1E39
:2002000018C01CE0183F5A26B8800104D8800315B88000171009883A1039883A101048C029
:20020800988FC83A102F883A01C0080E01800804880B883A9009883AD9C0041510104A80FC
:20021000103F661ED9C0041781E1883A88800117B80F883AE00D883A880B883A9009883A1B
:20021800103EE83A103F5D1E85E1883ADDC00317003F4306DD4002150500040400003D06A1
:20022000B809883AA00B883ADA4006151010CE001009883AA00B883AD88003151010DA00F9
:20022800B8AFC83AB8800288D9000317DA400617D98008041000051EBDC00C04E700004411
:20023000E5FFFFC5202F883A003F9806D880021710000226BDC00DC4003FF806BDC015C48E
:20023800003FF60605C0090EB80F883A01800804880B883A9009883ADA40061510104A80AA
:20024000103F361EDA40061785E1883A483FAF2600800B44D88007C58880011701C0004428
:20024800D98007C4880B883A9009883A103EE83A103F2A1E84000044003FA40640BFFFC349
:2002500001C00044423FFFC4D88007C588800117D98007C4880B883A9009883ADA0003153B
:20025800103EE83ADA000317103F9B26003F1B0605000204B8800104D8800415BDC0001765
:20026000D80000150013883A003F6606988000901000091E99FFFFC401800804880B883AF5
:200268009009883AD9C0031510104A80103F0B1ED9C0031781E1883AB8800017B8C0010465
:2002700001C00044D880080588800117D9800804880B883A9009883AD8C00315103EE83AAF
:20027800103EFE1ED8C0031784000044182F883A003EE30600800044D8000215002B883AB2
:20028000D8000115D88000150500028405BFFFC404FFFFC4003EDA0600800044D8800115DB
:20028800003F0A0605400044008000C4003ED40600804074300F883A280D883A200B883A09
:2002900011066117101051412880000B1080020C100025262880008FDEFFFB04DCC003159A
:20029800DC800215DC400115DC000015DFC004152027883A2821883A3025883A3823883AB0
:2002A0001000100E8080000B108010148080000D00BFFFC400000D0688810050880F883AFD
:2002A8001000011E01C100048140008F900D883A9809883A1010B9C000BFF20E88A3C83AAA
:2002B00090A5883A047FF4160005883ADFC00417DCC00317DC800217DC400117DC000017D7
:2002B800DEC00504F800283A00BFFFC4F800283ADEFFFD0400804074DC000115DFC002158F
:2002C000108292042880011500804074D90000C52021883A1106611701C00044D98000C4B2
:2002C8001010A48010BFFFD81000011E043FFFC48005883ADFC00217DC000117DEC003045F
:2002D000F800283ADEFFFD0400804074DC000115DFC00215108292043080011500804074D8
:2002D800110661172821883A01C00044300B883AD98000C4DC0000C51010A48010BFFFD8C2
:2002E0001000011E043FFFC48005883ADFC00217DC000117DEC00304F800283ADEFFFE04F8
:2002E800DC000015008040742021883A2809883A300B883A380D883ADFC001151006BD153A
:2002F0001010F40010FFFFD81800041E00C0407418C6BD171800012680C00015DFC0011749
:2002F800DC000017DEC00204F800283A20001A16000F883A2800020E014BC83A39C0005CF9
:20030000200D883A00C000442900092E0080080400C000440000010610001226294B883A75
:2003080010BFFFC418C7883A293FFB3618000D260005883A31400236314DC83A10C4B03A10
:200310001806D07A280AD07A183FFA1E380001260085C83AF800283A0109C83A01C0004429
:20031800003FE4060005883A003FF80620001716000F883A2005883A2800010E014BC83A0E
:2003200000C000442900092E0180080400C000440000010630001026294B883A31BFFFC472
:2003280018C7883A293FFB3618000B261806D07A114001361145C83A280AD07A183FFB1EFE
:20033000380001260085C83AF800283A0109C83A01C00044003FE7062005883A003FF8060C
:20033800200D883A2900152E280014160080080400C000440000020610000E2628000416DA
:20034000294B883A10BFFFC418C7883A293FFA36180008260005883A31400236314DC83A66
:2003480010C4B03A1806D07A280AD07A183FFA1EF800283A0005883AF800283A00C0004405
:20035000003FF4062005883A2900132E280012160180080400C000440000020630000C26B8
:2003580028000416294B883A31BFFFC418C7883A293FFA36180006261806D07A11400136ED
:200360001145C83A280AD07A183FFB1EF800283A2005883AF800283A00C00044003FF6065F
:200368000005883A2000072620C0004C2008D07A180001261145883A294B883A203FFA1EBF
:20037000F800283AF800283ADEFFFE04008666B4DC000015DFC0011510A666042021883A71
:200378001100182E014666B4296666441010CE0000E000341009883A18FFFFC40005883AF6
:2003800018FFFFC4183FFE1E10800044113FFC16017999B4295999C41010DA001405883A5F
:20038800100690BA1885883A10BFFFC4103FFE1E0005883ADFC00117DC000017DEC0020484
:20039000F800283A200490BA1105883A10BFFFC400BFFE16003FF606DEFFFF040100407478
:2003980001404074DFC000152106130429466704214004260180407431866704310DC83A62
:2003A00010116EC00100407401404074210008042940080421400426018040743180080425
:2003A800310DC83A10116EC001004074014040742105C5042945C504214004260180407416
:2003B00031861304310DC83A10116EC010115740DFC00017DEC0010410116401DEFFFF0459
:2003B8000009883ADFC000151010F9C01010FBC0D1A05F17D1606017D1206117DFC0001744
:2003C000DEC00104101005C1DEFFFE04DC000015DFC001152021883A101048C0010040742F
:2003C800000F883A100D883A800B883A21066304DFC00117DC000017DEC002041010FC819F
:2003D000213FFFC4210000A82000041E01004074000F883A210663041010FC81D0A00517A2
:2003D80010000926DEFFFF04DFC00015103EE83A00C0144410C0001500BFFFC4DFC000178D
:2003E000DEC00104F800283AD0A05E0400C0144410C0001500BFFFC4F800283ADEFFFF0475
:2003E800DFC0001510116440008000441001703ADFC00017DEC00104F800283A0100407495
:2003F0002106280410113E8120C000173005883A2989883A01BFFFD429000136F800283A0B
:2003F80019C0013731FFFC2E29C000072940004419C00035003FF80620001426280A923A3A
:2004000020803017DEFFFE04DC000015DFC001152021883A294000D41140033580C0301720
:20040800188000371080004C1000051E18C00037DFC00117DC000017DEC00204F800283A3F
:20041000010000441010DC80003FF40600BFFA84F800283A20000926280008263000072639
:2004180020800C17308000151000062621000D04290000150005883AF800283A00BFFA8432
:20042000F800283A00BFFEC4F800283ADEFFFE04DC000015DFC001152021883A20001E269B
:200428002809883A28001C168080311728801A2E8140341728BFFFC41104703A1000161E76
:200430001010CE001004923A00C0403418FFC00410C4703A80C03017110001141900033553
:2004380080C03017108000941880033580C03017188004371080004C1000032600800044F6
:200440001880043500BFFEC4DFC00117DC000017DEC00204F800283A00BFFA84003FFA0626
:20044800DEFFF604DC400215DFC00915DDC00815DD800715DD400615DD000515DCC00415B6
:20045000DC800315DC0001153144B03ADC400A17100044162027883A20004226382B883A6A
:2004580038004026208031173021883A30803D2E28803C2E248034173145C83A9085C83A40
:20046000144038368800371694BFFFC49164703A9000341E05BFFFC405C001048800021E55
:200468000005883A00001D06DD800015810000CC20002526B929C83A8D00012E8829883A4D
:200470008121C83AAC8B883AA00D883AD909883A10116EC098802E17D8C000179525883AE5
:200478008D23C83A8085883A10C0003598802E178085883A110000371900012610C0003535
:2004800098C03017188004371080008C10001326008000841880043500BFFEC4DFC0091770
:20048800DDC00817DD800717DD400617DD000517DCC00417DC800317DC400217DC00011794
:20049000DEC00A04F800283A888001708829883A103FDC1E05000104003FDA06840001045F
:20049800003FCE0600BFFA84003FEC0620003B26DEFFF504DD000515DFC00A15DF000915BA
:2004A000DDC00815DD800715DD400615DCC00415DC800315DC400215DC0001153029883A68
:2004A8003000302620802E172021883A80C02F172885883A2823883A3825883A3889883A22
:2004B00010C0282E19002736814034178809883A002F883A1010CE00102D883A8080331709
:2004B800B08002360005883A00001F06903FFD2685403417056BC83AAC6A703A8D40152694
:2004C0008D79C83AA80B883A8009883A101108C01000151E84C034179F27C83A94C0012E4E
:2004C8009027883ADCC00015A5CF883A880D883AA80B883A8009883A1011120010000A1E32
:2004D00094E5C83ABCEF883A8CE3883AB5800044003FE2060039883A003FEA0600BFFA84EC
:2004D800F800283A00BFFA84DFC00A17DF000917DDC00817DD800717DD400617DD00051744
:2004E000DCC00417DC800317DC400217DC000117DEC00B04F800283A2005883A2000102662
:2004E8003009883A30000E2610C02E1710802F17380D883A28CB883A3947883A2880082ECE
:2004F00010C00736DEFFFF04DFC0001510116EC00005883ADFC00017DEC00104F800283A82
:2004F80000BFFA84F800283A2000602620803017DEFFFB04DC000015DFC00415DCC0031587
:20050000DC800215DC4001152021883A1000242620C032171800361E1080023710803FCCE0
:2005080010BFFAC410C0036818001D1E100490BA00C0407410C7883A188510171000683AD7
:200510000101147401011528010114C00101151C010114CC010114A0010114A0010114A0F5
:20051800010114A0010114A0010114A0010114D8010114E4044008040480054484C034170D
:20052000880B883A9809883A1010DA0080C031171880021E808033171440282680000C153C
:2005280000BFFB44DFC00417DCC00317DC800217DC400117DC000017DEC00504F800283AA8
:2005300004402004048005C4003FEC060440800404800644003FE906044100040480080428
:20053800003FE6060442000404800844003FE3061080013710803FCC10C005A018000D1E1B
:2005400010C006201800051E10800520103FE4260440080404800504003FD80604404004DA
:2005480004800604003FD5060440100404800584003FD20604402004003FFC060080004402
:200550008480361580800C1580000D1580C00E1584400F1584C01015D16006048009883A3F
:20055800101157800005883A003FCE0600BFFA84F800283AF800283A2000022620800217BF
:2005600010000B1ED0A0051710001026DEFFFF04DFC00015103EE83A00C0058410C000153E
:2005680000BFFA84DFC00017DEC00104F800283A2880001721400115208000151100011571
:20057000290000150005883AF800283AD0A05E0400C0058410C0001500BFFA84F800283A75
:20057800DEFFFE04D1600604DC000015DFC001152021883A101164C01000082610C0031733
:2005800018000626800B883A1009883ADFC00117DC000017DEC002041800683ADFC0011730
:20058800DC000017DEC00204F800283A2000032620800417100001261000683AF800283A1B
:20059000F800283A000170FAF800283ADEFFFB04DCC00315DC800215DC400115DC00001506
:20059800DFC004152C0000172027883A2823883A101048C0148000448440091E0021883A64
:2005A0008005883ADFC00417DCC00317DC800217DC400117DC000017DEC00504F800283AE7
:2005A80081000217900D883A980B883A10116BC0103FF32684000017003FEF060007883A89
:2005B00030C0021E0005883AF800283A20C5883A18C0004428CF883A1080000339FFFFC3F1
:2005B80011FFF72611C5C83AF800283A2005883A0007883A30C0011EF800283A28CF883AF2
:2005C00039C0000310C9883A18C0004421C00005003FF8062D2D2D2D202D2D2D636C65575F
:2005C80020656D6F45206F7420514350646165527257202F20657469676F72506D6D61722B
:2005D0002D2021652D2D2D2D000A2D2D61656C507220657372656665206F7420206568740E
:2005D8006F6D656D7220797265676E61726F6620756F792050452072442051436369766593
:2005E00000000A65646165526375732073736563216C7566000000006461655269616620C3
:2005E8002164656C000000007361724575732065736563636C7566730000002173617245A1
:2005F0006166206564656C69000000213025783000005832736172456120646545206C6C47
:2005F80020514350746365530073726F736172456C6120655045206C532051436F7463654C
:2006000046207372656C6961000000645832302500000020736172456166206564656C691C
:2006080020746120726464612073736530257830000A58360000000A7665642F4350452FA3
:2006100076615F51656D5F6C0000006D000000000000000000000000000000000000000039
:200618000000000000000000000000000000000000000000000000000000000000000000C2
:200620000000000000000000000000000000000000000000000000000000000000000000BA
:200628000000000000000000000000000000000000000000000000000000000000000000B2
:200630000000000000000000000000000000000000000000000000000000000000000000AA
:200638000000000000000000000000000000000000000000000000000000000000000000A2
:2006400000000000000000000000000000000000000000000000000000000000000000009A
:20064800000000000000000000000000000000000000000000000000000000000000000092
:2006500000000000000000000000000000000000000000000000000000000000000000008A
:20065800000000000000000000000000000000000000000000000000000000000000000082
:2006600000000000000000000000000000000000000000000000000000000000000000007A
:2006680001011880010118880101189000000000000000000000000000000000000000008C
:200670000000000000000000000000000000000000000004000000000001000A000000005B
:200678000002000A0000000000000000000000000000000000000000010118380000000004
:20068000000000000101126C01011398010110540101108C010111200000000001000000F5
:20068800000000000000000000000000000000000000000000000000000000000000000052
:2006900000000000000000000000000000000000000000000000000000000000000000004A
:20069800000000000000000000000000000000000000000000000000000000000000000042
:2006A00000000000000000000000000000000000000000000000000000000000000000003A
:2006A8000000000001010FF800000000010000000102100001000000000000000000010013
:2006B00000010000000001000000000000000001000010000101184C010118A00102105094
:2006B8000000000001011994010119940000000000000000000000000000000000000000C4
:2006C00000000000000000000000000000000000000000000000000000000000000000001A
:2006C800000000000000000000000000000000000000000000000000000000000000000012
:2006D00000000000000000000000000000000000000000000000000000000000000000000A
:2006D800000000000000000000000000000000000000000000000000000000000000000002
:00000001FF
